0000000101AH001PA000751900690404    0020250505FE  751         202505051CHONORARIOS                                                    00000000100+00000000100+        233595                                                                                                                                                                                                                                                                                                                                                    
0000000102AH001PA000751                                                                                                                                                                                                                                                                                                                                                                                                                                                                                                         
0000000103AH001PA000751001     000000001000+00000000600000000+00000000600000000+0000000000 00000000114000000+0011001    0000000000                                        900690404    00                                                                                                                                                                                                                                                                                                                                       
0000000201XX001PA00479029813684     0020250616FE  4790        202506161CREFLECTOR LED 400W IP65                                       00000000100+00000000100+        00000000                                                                                                                                                                                                                                                                                                                                                  
0000000202XX001PA004790                                                                                                                                                                                                                                                                                                                                                                                                                                                                                                         
0000000203XX001PA004790001     000000001000+00000000015546218+00000000015546218+0000000000 00000000002953782+0011001    0000000000                                        29813684     00                                                                                                                                                                                                                                                                                                                                       
0000000301AH001PA02060234051908     0020250805DP  20602       202508051Cpila recargable aa 2700mah gp                                 00000000100+00000000100+        233595                                                                                                                                                                                                                                                                                                                                                    
0000000302AH001PA020602                                                                                                                                                                                                                                                                                                                                                                                                                                                                                                         
0000000303AH001PA020602001     000000001000+00000000004201681+00000000004201681+0000000000 00000000000798319+0011001    0000000000                                        34051908     00                                                                                                                                                                                                                                                                                                                                       
0000000401AH001PA605276890903858    0020250724FVNB605276      202507241CAGUA BRISA BOTELLON 5 GL TAPA VALVULA                         00000000100+00000000100+        233595                                                                                                                                                                                                                                                                                                                                                    
0000000402AH001PA605276                                                                                                                                                                                                                                                                                                                                                                                                                                                                                                         
0000000403AH001PA605276001     000000001000+00000000010088400+00000000010088400+0000000000 00000000000000000+0011001    0000000000                                        890903858    00                                                                                                                                                                                                                                                                                                                                       
0000000501AR001PA079274890903939    0020250809CA  072079274   202508091C|CERVEZA TECATE BOT R 750X16                                  00000000100+00000000100+        00000000                                                                                                                                                                                                                                                                                                                                                  
0000000502AR001PA079274                                                                                                                                                                                                                                                                                                                                                                                                                                                                                                         
0000000503AR001PA079274001     000000001000+00000000009342874+00000000009342874+0000000000 00000000004675114+0011001    0000000000                                        890903939    00                                                                                                                                                                                                                                                                                                                                       
0000000601AH001PA019111900040557    0020250801VC  19111       202508011CARRENDAMIENTO LOCAL COMERCIAL                                 00000000100+00000000100+        233595                                                                                                                                                                                                                                                                                                                                                    
0000000602AH001PA019111                                                                                                                                                                                                                                                                                                                                                                                                                                                                                                         
0000000603AH001PA019111001     000000001000+00000000777102100+00000000777102100+0000000000 00000000147649400+0011001    0000000000                                        900040557    00                                                                                                                                                                                                                                                                                                                                       
0000000701AH001PA033455900923112    0020250808CT  33455       202508081CPAPAS A LA FRANCESA                                           00000000100+00000000100+        233595                                                                                                                                                                                                                                                                                                                                                    
0000000702AH001PA033455                                                                                                                                                                                                                                                                                                                                                                                                                                                                                                         
0000000703AH001PA033455001     000000001000+00000000019185187+00000000019185187+0000000000 00000000001534815+0011001    0000000000                                        900923112    00                                                                                                                                                                                                                                                                                                                                       
0000000801AH001PA000430900181067    0020250809RINC430         202508091CARREDAMIENTO BODEGA  BELMONTE                                 00000000100+00000000100+        233595                                                                                                                                                                                                                                                                                                                                                    
0000000802AH001PA000430                                                                                                                                                                                                                                                                                                                                                                                                                                                                                                         
0000000803AH001PA000430001     000000001000+00000002874064000+00000002874064000+0000000000 00000000546072160+0011001    0000000000                                        900181067    00                                                                                                                                                                                                                                                                                                                                       
0000000901AH001PA000937805004648    0020250404FV  937         202504041CHONORARIOS                                                    00000000100+00000000100+        233595                                                                                                                                                                                                                                                                                                                                                    
0000000902AH001PA000937                                                                                                                                                                                                                                                                                                                                                                                                                                                                                                         
0000000903AH001PA000937001     000000001000+00000000600000000+00000000600000000+0000000000 00000000114000000+0011001    0000000000                                        805004648    00                                                                                                                                                                                                                                                                                                                                       
0000001001AH001PA059211805013122    0020250502FESA59211       202505021C1. 01I - CANON MES: MAY/2025 [1787] CRA. 4 # 10-08 LOCAL 101  00000000100+00000000100+        233595                                                                                                                                                                                                                                                                                                                                                    
0000001002AH001PA059211                                                                                                                                                                                                                                                                                                                                                                                                                                                                                                         
0000001003AH001PA059211001     000000001000+00000000529732000+00000000529732000+0000000000 00000000100500900+0011001    0000000000                                        805013122    00                                                                                                                                                                                                                                                                                                                                       
0000001101AH001PA728139890301054    0020250606GE  0728139     202506061CCAFE 2500 GRS                                                 00000000100+00000000100+        233595                                                                                                                                                                                                                                                                                                                                                    
0000001102AH001PA728139                                                                                                                                                                                                                                                                                                                                                                                                                                                                                                         
0000001103AH001PA728139001     000000001000+00000000235521000+00000000235521000+0000000000 00000000011776100+0011001    0000000000                                        890301054    00                                                                                                                                                                                                                                                                                                                                       
0000001201AH001PA0067111004518918   0020250809FE  6711        202508091CJAMON AHUMADO REBECA X 2.5 KILOS 140 TAJADAS                  00000000100+00000000100+        233595                                                                                                                                                                                                                                                                                                                                                    
0000001202AH001PA006711                                                                                                                                                                                                                                                                                                                                                                                                                                                                                                         
0000001203AH001PA006711001     000000001000+00000000072455464+00000000072455464+0000000000 00000000003164538+0011001    0000000000                                        1004518918   00                                                                                                                                                                                                                                                                                                                                       
