0000000101AH001PA033455900923112    0020250808CT  33455       202508081CPAPAS A LA FRANCESA                                           00000000100+00000000100+        233595                                                                                                                                                                                                                                                                                                                                                    
0000000102AH001PA033455                                                                                                                                                                                                                                                                                                                                                                                                                                                                                                         
0000000103AH001PA033455001     000000001000+00000000019185187+00000000019185187+0000000000 00000000001534815+0011001    0000000000                                        900923112    00                                                                                                                                                                                                                                                                                                                                       
0000000201AH001PA000937805004648    0020250404FV  937         202504041CHONORARIOS                                                    00000000100+00000000100+        233595                                                                                                                                                                                                                                                                                                                                                    
0000000202AH001PA000937                                                                                                                                                                                                                                                                                                                                                                                                                                                                                                         
0000000203AH001PA000937001     000000001000+00000000600000000+00000000600000000+0000000000 00000000114000000+0011001    0000000000                                        805004648    00                                                                                                                                                                                                                                                                                                                                       
